:040000000201913236
:03000B00020405E7
:0100130032BA
:01001B0032B2
:030023000204597B
:01002B0032A2
:01003300329A
:03003B0002254457
:01004300328A
:01004B003282
:01005300327A
:01005B003272
:01006300326A
:01006B003262
:01007300325A
:01007B003252
:01008300324A
:01008B003242
:01009300323A
:01009B003232
:0100A300322A
:0100AB003222
:0100B300321A
:0100BB003212
:0100C300320A
:0100CB003202
:0100D30032FA
:0100DB0032F2
:0100E30032EA
:0100EB0032E2
:0100F30032DA
:0100FB0032D2
:0101030032C9
:01010B0032C1
:0101130032B9
:01011B0032B1
:0101230032A9
:01012B0032A1
:010133003299
:01013B003291
:010143003289
:01014B003281
:010153003279
:01015B003271
:010163003269
:01016B003261
:010173003259
:01017B003251
:010183003249
:03018B000208E087
:1001A400C20C75360075326A75330075346A75355C
:0901B40000C208C209C20AC20B14
:0302560002018E14
:03018E0002025911
:1002590012037F12061112096FD2AF74F1C0E07454
:100269002CC0E01229CD158115817582141202A4C2
:10027900C2B71007028004D2088002C20812061F02
:1002890012099E12220512242B12051E300008B2F3
:10029900967582641202A4C20880D7AF82C2A9C22D
:1002A900008F26D2A922AF82C2A9C2018F27D2A963
:1002B90022AE82AF83C2A9C2028E288F29D2A92277
:1002C900AE82AF83C2A9C2038E2A8F2BD2A922AFD5
:1002D90082C2A9C2048F2C8F2DD2A922AF82C2A9B2
:1002E900C2058F2E8F2FD2A922AF82C2A9C2068F33
:1002F900308F31D2A922AE82AF83C2AC200B3685B2
:1003090032828533838E05EDF00532E4B53202057C
:1003190033C3E532943AE5339408400675326A7579
:100329003300E532B53407E533B53502D20B200A7F
:1003390004D20AD299D2AC8E828F8322AF82200B4B
:1003490034853282853383EFF00532E4B532020514
:1003590033C3E532943AE5339408400675326A7539
:100369003300E532B53407E533B53502D20B200A3F
:1003790004D20AD2992243BA80439140439240530E
:10038900B13F43B2C05391C443923BE59375930087
:10039900E5947594FFE595759500E5967596FF4387
:1003A900B13043B230C2B4D2B5758E40538EFE75AA
:1003B9008900758800758AC2758CB6D28C758B9E3A
:1003C900758DFFD28E75D111D29ED29C75D90075CB
:1003D900D80075DA1175DB48D2DE75CF0075CDC04E
:1003E90075CED290FA207440F0A3A3E4F075F52DF0
:1003F900D2A9D2AC90FA20E04488F022C0E0C0D063
:10040900D52602D200D52702D201152874FFB528B6
:10041900021529E52845297002D202152A74FFB56B
:100429002A02152BE52A452B7002D203D52C05D2B9
:1004390004852D2CD52E05D205852F2ED53005D234
:1004490006853130B20C300C02D207D0D0D0E03260
:10045900C025C0E0C0F0C082C083C0D075D00810EC
:1004690098028066E599547FFFBF0D1FE536245633
:10047900F582E43400F583E4F0F53675820D120354
:100489004575820A120345D209803FBF081AE5362D
:1004990060161536758208120345758220120345C8
:1004A9007582081203458022BF2000401D430F209A
:1004B90074ED25364014E5362456F582E43400F50A
:1004C90083EFF005368F821203451099028035E5D6
:1004D90032B53408E533B53503300B2685348285CA
:1004E9003583E0F5990534E4B534020535C3E534BF
:1004F900943AE5359408400675346A753500C20B9F
:100509008002C20AD0D0D083D082D0F0D0E0D025EA
:05051900327582002292
:102CF1000D0A2A2A2A20526F634D616E202A2A2A40
:032D01000D0A00B8
:1001BD00751A00751B00751800751900C20DC20E59
:0601CD00D20FC210C211A6
:10051E0010090122900056E0FFBF67030205AEBF2F
:10052E0068030205D4BF6C028006BF7202805B2294
:10053E0090F000E493FEA3E493FFC006C00774049A
:10054E00C0E0742EC0E01229CDE58124FCF5819027
:10055E00F002E493FF7E00C007C0067413C0E0747F
:10056E002EC0E01229CDE58124FCF58190F003E444
:10057E0093FF7E00C007C006741EC0E0742EC0E05C
:10058E001229CDE58124FCF581229000001226531C
:10059E00742BC0E0742EC0E01229CD158115812276
:1005AE0090005775F00012283CAE82C00612266FDE
:1005BE007F00C007743CC0E0742EC0E01229CDE568
:1005CE008124FCF58122744CC0E0742EC0E0122907
:1005DE00CD158115817458C0E0742EC0E01229CD5E
:1005EE0015811581746CC0E0742EC0E01229CD15F2
:1005FE008115817483C0E0742EC0E01229CD15815F
:10060E00158122C291C29075A000751800758000E8
:10061E0022E51A24FB500122E51A75F003A4900678
:10062E00307302063F02065E020678020688020654
:10063E00BD90F002E493FF7E0043074043060A8F0D
:10064E00828E8312084B7582141202AF751A012224
:10065E002001012275820A1208B2751800758000F9
:10066E007582141202AF751A02223001581208CF89
:10067E007582101202AF751A0322D2B77F00BF1017
:10068E0000501B751D3A751E088F1C851B82C007F6
:10069E001206D490083A1207EBD0070F80E0051B24
:1006AE00740BB51B07D20DD210751A04C2B72230C7
:1006BE000113C291C29075A000751B0075821012B5
:1006CE0002AF751A0322AF82AE1C74075EFDEE30C8
:1006DE00E3047E0080097E0B8D047407C39CFDEE3F
:1006EE002FFF7E00BE0B0050368E04ECC40354F870
:1006FE00FB8D02EA2BF5828F5BC007C006C005C0DA
:10070E0004122123AB82D004D005D006D007742169
:10071E002C251DF582E4351EF583EBF00E80C57495
:10072E00162FFF7E00BE0B0050368E04ECC4035411
:10073E00F8FB8D02EA2BF5828F5BC007C006C00561
:10074E00C004122123AB82D004D005D006D007748A
:10075E00162C251DF582E4351EF583EBF00E80C5B3
:10076E0074162FFF7E00BE0B0050368E04ECC403B1
:10077E0054F8FB8D02EA2BF5828F5BC007C006C0D2
:10078E0005C004122123AB82D004D005D006D007B9
:10079E00740B2C251DF582E4351EF583EBF00E80CF
:1007AE00C574162FFF7E00BE0B0050308E04ECC4B5
:1007BE000354F8FC8D03EB2CF5828F5BC007C0064B
:1007CE00C005122123AC82D005D006D007EE251D20
:1007DE00F582E4351EF583ECF00E80CB22AE82AFAF
:1007EE0083EE2416FCEF3400FD7A168C828D83E0A6
:1007FE00A3AC82AD83C42404F5E4742D3400F5E576
:10080E008E828F83E0A3AE82AF83C42404F58274FC
:10081E002D3400F5837B00C2AFBA0105BB0F02D2A7
:10082E0091EB93C4F905E3EB9349F5A005E3D29060
:10083E000BC290BB10E3D2AFDAB1C29122AE82AF3F
:10084E00837C007D808CA075820EC007C006C0051B
:10085E00C0041208B2D004D005D006D0077A007BAF
:10086E00008A008B01C3E89460E994015033B85CB0
:10087E0005B90102D291EC5EF8ED5F48600479771C
:10088E008002790089A0D290000000C290EDC313BF
:10089E00CC13CCFD4C7003FC7D800ABA00C30B80D8
:1008AE00C0C29122AF82C291C290000000D29100CC
:1008BE000000D290000000C290000000DFF4C29150
:1008CE0022D20E90FA227401F022C20FC20E300F05
:1008DE00FD22C0E0C082C083C0D075D01090FA2235
:1008EE00E0FF30E06E300D29740AB51824C291C2B3
:1008FE0090000000D291000000D290000000C29043
:10090E00000000D290000000C290000000C291C210
:10091E000D7F0400DFFD0518E51824F5500375184A
:10092E00008518807F0400DFFD53CEBF90FA25743A
:10093E001FF0A3E4F090FA23741FF000000043CEE2
:10094E00407F0E00DFFD300E0890FA2174C1F0805A
:10095E0002D20F90FA22E4F0D0D0D083D082D0E031
:01096E003256
:102D040000000000000000000000000000000000BF
:102D140000000000000000000000000000000000AF
:102D2400070707070707070707070707070707072F
:102D34000100000100000101010100010100010185
:102D4400020002020002000201070406000707064F
:102D5400040404040404040404040404040404042F
:102D64000303000300030000030003000303000047
:102D740005050707050505050505050705070505F7
:102D84000600000600000606060600060600060603
:102D940001030307030503050301030701030101FD
:102DA40000040606000100040607060605010201E8
:102DB40001070006020205000502070706020204D5
:102DC40001030307030503050301030701030101CD
:102DD40001010301010301010303030101030103D1
:102DE4000107010101070107010107070707070799
:102DF40003010301030303030303010103010103AB
:102E040068692073636F72653A2025640D0A006750
:102E140061696E3A2025640D0A006373756D3A206A
:102E2400307825780D0A0048692073636F72652035
:102E340072657365740D0A004E6577206761696E6B
:102E4400203D2025640D0A00436F6D6D616E64732F
:102E54003A0D0A0020206C203D206C6973742070A8
:102E64006172616D730D0A00202072203D2072652D
:102E74007365742068692073636F72650D0A00209E
:102E840020673C6761696E3E203D2073657420674E
:062E940061696E0D0A00E9
:1001D300C21C754D14754E00C21EC21F753C0075BE
:1001E3003D00753E00753F00754000754100754246
:1001F3000F754300754403754500754600E4F547E4
:10020300F548754903F54AF54BF54CD212C213C2B2
:0F02130014C215C216C217C218C219C21AC21BD2
:10096F00121C65121C8412109C1210ACD21290052E
:10097F00781202BA75820B1202D875820E1202E536
:10098F007582171202F21226F1400302264222D27A
:10099F00B61209BA101002800FA2179218B21C30AB
:1009AF001C03121BFC120AB8C2B622120C387402B6
:1009BF00B53C06120E6E12197EC21D121164121072
:1009CF007010040280087402B53C031211B41005B4
:1009DF0003020A82E54560021545E53C600C74028E
:1009EF00B53C0280057405B53C4E7F00BF04004046
:1009FF0003020A82EFC40354F82480FE2403F9870C
:100A0F0005BD031F8F82C00712129CD0078F82C0B3
:100A1F000712162BD007401D8F82C00712129CD0D1
:100A2F0007801274042EF9E7FE20E0098F82C007B9
:100A3F0012129CD0070F80B47404B53C367F00BFF0
:100A4F000400502FEFC40354F824802403F98706C1
:100A5F00BE031D8F82C00712129CD0078F82C00762
:100A6F0012162BD00740098F82C00712129CD00795
:100A7F000F80CC10060122E53C600C7402B53C02DD
:100A8F0080057405B53C217F00BF0400501AEFC4E8
:100A9F000354F824802404F9E730E0098F82C0075B
:100AAF0012129CD0070F80E122121C847406B53CF1
:100ABF000280307407B53C0280297403B53C028074
:100ACF00227F00BF0400501BEFC40354F82480247E
:100ADF0003F98706BE03098F82C007121ED5D00700
:100AEF000F80E07401B53C02800C7402B53C0280AB
:100AFF00057405B53C03121C967406B53C02803193
:100B0F007407B53C02802A7403B53C0280237F032F
:100B1F00EF20E71DEFC40354F824802403F9870660
:100B2F00BE030280098F82C007121ED5D0071F8017
:100B3F00DF7401B54B06854982121DE9E53C70064D
:100B4F00754404754902E544602A7F00AD447E0078
:100B5F001DBDFF011E8F037C00C3EB9DEC64808ED7
:100B6F00F063F08095F0500C8F82C007121D7BD080
:100B7F00070F80D87F00C3E5499F400C8F82C007C5
:100B8F00121E5BD0070F80EE754F01854782854897
:100B9F0083121A18755501755600755760755301F4
:100BAF00755402758205121FF590F000E493FEA3B1
:100BBF00E493FF754F018E828F83121A18755501BA
:100BCF0075560075576075530175540275823A1248
:100BDF001FF5E4B53C02800E7401B53C02800A7427
:100BEF0007B53C4480180220A27555DC7556407538
:100BFF00578075533275540375821E021FF5755554
:100C0F00E3755640755780755323755403758219D4
:100C1F00121FF57555E87556407557807553237536
:100C2F00540375822A021FF522E53C24F850012255
:100C3F00E53C240B83F582E53C240C83F583E473B8
:100C4F005F99D468BEEF2A4F0C0C0C0D0D0D0E0ED4
:100C5F00741FB568028001227568FF753C01121977
:100C6F00FE12109C1210AC754900754C00C213C2D5
:100C7F0014C219C21AC21B754403E4F547F548F5AF
:100C8F004B755E319003840202C920030122E549AE
:100C9F0090409593F5821202D8E54990409893F5CC
:100CAF00821202E5E54990409B93F5821202F2D23F
:100CBF00157568FF7402B54C047F2380027F228F65
:100CCF005E753C02221019028025753C040543E530
:100CDF004390408D93FFAD47AE487C00EF2DFDEC68
:100CEF003EFE8D478E48755E9890008C1202C9109B
:100CFF001A02800C753C05755E979001901202C91F
:100D0F00101B02801D755E1A754B02E549904092CB
:100D1F0093FFAD47AE487C00EF2DFDEC3EFE8D47B7
:100D2F008E48101602800F9000501202C9754A00AB
:100D3F00755E80753C03E54124B9500DE54B700994
:100D4F00754B01900BB81202C9200301227401B533
:100D5F004B02800122754B022220030122054AE536
:100D6F004A24F9502F753C0112109C1210AC121C22
:100D7F0065754C00C213C214C219C21AC21B754B3F
:100D8F0000755E319003841202C974FE254950012B
:100D9F00220549227406B54A08C2179001040202BF
:100DAF00C9B217301703755E2B9000500202C9208D
:100DBF000301227F00BF0400501FEFC40354F82427
:100DCF0080FE2403F98705BD050C770374042EF903
:100DDF00870674FE5EF70F80DC755E29753C022274
:100DEF0020030122D54427753C079002581202C9EF
:100DFF0090F000E493FEA3E493FFC3EE9547EF95C5
:100E0F004850148547828548831226538009753CC4
:100E1F00069000C81202C9755EC022300340753CAF
:100E2F000112109C1210ACC214C219C21AC21BD2EA
:100E3F001375450E754B02755E319003840202C91E
:100E4F0030031B753C001210AC121C6575820B121F
:100E5F0002D875820E1202E57582170202F222780D
:100E6F0083E6700E75820112160BE582700478838B
:100E7F00760120134D788BE67014E54124FA500E5D
:100E8F0075820112160BE5827004788B76017893C8
:100E9F00E67014E54124E1500E75820112160BE540
:100EAF0082700478937601789BE67061E54124C3E4
:100EBF00505B75820112160BE5827051789B76019B
:100ECF00804B788BE67015E545701175820112160F
:100EDF000BE5827007788B76017545477893E6703E
:100EEF0015E545701175820112160BE582700778B2
:100EFF00937601754547789BE67012E545700E7540
:100F0F00820112160BE5827004789B76017F00BF79
:100F1F000400502EEFC40354F82480FE2403F987F5
:100F2F0005BD031B8F82C007C006C00112162BD050
:100F3F0001D006D0075008770474022EF876020FFE
:100F4F0080CD101402805A754601E54975F002A450
:100F5F00249EF582744035F0F583E493FEA3E49369
:100F6F00FF8E828F831202BA754300755E257F0054
:100F7F00BF0400502CEFC40354F82480FE2404F85F
:100F8F007403F62EF98705BD021474022EF98782B9
:100F9F00C007C00112181BE582D001D007F70F80E0
:100FAF00CF101502800B754600D2129005781202F1
:100FBF00BAE4B54602800F7401B54602801D740273
:100FCF00B5460280532220020122B212301206903F
:100FDF0005780202BA900FA00202BA200201227510
:100FEF0046029001F41202BA7F00BF0400400122B2
:100FFF00EFC40354F82480FE2404F9E7FD30E11513
:10100F00430504A70574FD5DF774052EF87600748B
:10101F00062EF876000F80D23002457546009005F7
:10102F00781202BAD2121215E785825E7F00BF04D2
:10103F0000502DEFC40354F82480FE2404F9E73048
:10104F00E21B74032EF8E6FE6003BE010EEFC4032D
:10105F0054F824802404F87601800277000F80CEA4
:10106F002220080122154DE54D600122754D1474A3
:10107F0010B568157568FF054EE54E24F0500D90BC
:10108F000000122653754E0022754E002275372927
:10109F0075383D753908753A00753B0022E53C708F
:1010AF00437888762778897625788B7602788A76C2
:1010BF0004788C76007890762778917625789376D9
:1010CF0002789276087894760078987627789976D1
:1010DF0025789B7602789A7604789C7600D21D123A
:1010EF001164803C788876287889762B788B760007
:1010FF00788A7602788C7601789076227891762E9F
:10110F007893760078927601789476017898762E97
:10111F007899762E789B7600789A7602789C76016D
:10112F00788076277881762578837602788276089C
:10113F00788476007885760078867600788D7600CC
:10114F00788E76007895760078967600789D760082
:10115F00789E760022301D117887764C788F764CEA
:10116F0078977680789F76CC22E4B54C028007740E
:10117F0001B54C308016E54124CD5028788776662E
:10118F00788F766678977699754C0122E5412455CC
:10119F005012788776CC788F768078977699754CC1
:1011AF0002755E23228537828538751218F5400344
:1011BF0002127B74FFB56802805BE56824FC403245
:1011CF00E56875F003A49011D9730211E50211ECD3
:1011DF000211FA0211F37F017568FF80177F027504
:1011EF0068FF80107F087568FF80097F047568FFAE
:1011FF0080027F00E53E75F018A4242AFD74363571
:10120F00F0FEE53D2DF582E43EF583E4935F600546
:10121F008F39753A00E53E75F018A4242AFE74360E
:10122F0035F0FFE53D2EF582E43FF583E493553924
:10123F007003753A01853782853875121A86AF8229
:10124F00BF0110853782853875121B06755E16052E
:10125F0041800EBF020B853782853875121B06D26F
:10126F001474C8B54106E5427002D216E53A60041F
:10127F00753B0022758237121358B21E301E0DAF08
:10128F003B0FEFF53B24FD5003753B0022E582FF3A
:10129F00C40354F82480F9878204F88675C007C008
:1012AF00011218F5D001D0075060740229F88F820F
:1012BF00C007C001C0001213CAE582D000D001D010
:1012CF0007F6740429FEC000A8068605D000ED5469
:1012DF00067037740BB53E327403B53D158604BCEA
:1012EF00080874014DA806F6802074FE5DA806F666
:1012FF0080187414B53D138604BC040874014DA8FE
:10130F0006F6800674FE5DA806F6740229F88F8231
:10131F00C001C000121402E582D000D001F674059E
:10132F00B53C0280098982C001121358D00174069E
:10133F0029F886070FA607EF24FC500C76007405DA
:10134F0029F9870774016FF722A982740229F88699
:10135F0007BF0102800FBF02028017BF0402803D4A
:10136F00BF0857801BE904F8E6FF24F5504CEF1433
:10137F00F622E904F88607BF5200503EEF04F6222A
:10138F00E904F88607BF2B0B87071FA707EF702A03
:10139F00775122E7FF24F95021EF14F722E904F8DF
:1013AF008607BF2B0B87070FA707BF510D770022AB
:1013BF008707BF4B005003EF04F722E582FFC403FA
:1013CF0054F82480FE2403F98705BD02028005BD71
:1013DF00031A801374042EF9E7540660058F8202F6
:1013EF0014D28F820214368F820214E274022EF905
:1013FF00878222E582FFC40354F82480FE2403F978
:10140F008705BD0002800ABD0102800ABD0411805C
:10141F000A8F820215398F8202155B8F820215A205
:10142F0074022EF9878222AF82C007121648D007A6
:10143F00EFC40354F82480FFE53E75F018A4242A66
:10144F00FD743635F0FEE53D2DF582E43EF583E47F
:10145F0093FEBE03028003BE0C0774022FF987822E
:10146F00228F82C007C0061218A1AD82D006D00706
:10147F00EE5D604674022FF98782C007C00512180F
:10148F001BAE82D005D007EDB50602802DC007C078
:10149F0005122748E5828583F0D005D007FC7E0032
:1014AF0074072FF987037A00C3EC9BEE64808AF0F0
:1014BF0063F08095F050038D822274022FF987829A
:1014CF00021858E582C40354F824802402F9878255
:1014DF00021858E582C40354F82480FF753F27751E
:1014EF004025E53E75F018A4242AFD743635F0FE2C
:1014FF00E53D2DF582E43EF583E493FEBE030280C5
:10150F0003BE0C0774022FF98782228F82C007C097
:10151F00061218A1AD82D006D007EE5D60038D8252
:10152F002274022FF98782021858E582C40354F8F7
:10153F002480FF04F98706BE2B0475820222BE2E7B
:10154F00047582012274022FF9878222E582FFC47B
:10155F000354F82480F9BF020B8707BF2700500DF3
:10156F0075820422E724D8500475820822E904F812
:10157F00E624DA500475820122740329F87602E911
:10158F002404F9E7FF54066002800474FE5FF775C8
:10159F00820822E582FFC40354F82480F904F886F8
:1015AF0006BE2E00500475820222BF02028005BFC4
:1015BF0003168009E724DD500F758208228707BFC5
:1015CF002E00500475820422740329F87600121538
:1015DF00E785825E7582012275820312160BE58202
:1015EF00600475822922E546600475822522740203
:1015FF00B54C047F2380027F228F8222AF827E0030
:10160F007D00BD04005012EDC40354F82480240360
:10161F00F9E7B507010E0D80E98E8222E582C4033A
:10162F0054F8FF2480F98706BE270CEF248004F9B5
:10163F008707BF2502D322C322AF82E53C70243037
:10164F001204C21F801D201F1A758255C007121A5F
:10165F0007E582F537758255121A07E582D007F52F
:10166F0038D21FEF24FC4046EF2F90167D73800673
:10167F0080158020802B301207753F4E7540072252
:10168F0085373F85384022301207753F0375400775
:10169F00220216BE301207753F4E754055220216B4
:1016AF00FC301207753F037540552202179F22AF7A
:1016BF0039BF0102802DBF0202801DBF0402800DC1
:1016CF00BF0829E53724F4F53F85384022AF37743A
:1016DF000C2FF53F8538402285373FAF38740C2FDC
:1016EF00F5402285373FE53824F4F540227F007E10
:1016FF0000AD39BD0102802ABD0202801BBD04026C
:10170F00800CBD0824E53724FAFFAE38801BAD37B7
:10171F0074062DFFAE388011AF37AD3874062DFE2D
:10172F008007AF37E53824FAFEEF3395E0FDEF2F52
:10173F00FFED33FD788086047B00EFC39CFFED9BAC
:10174F00FDEE3395E0FCEE2EFEEC33FC7881860344
:10175F007A00EEC39BFEEC9AFCC374559F74808D88
:10176F00F063F08095F050047F558006ED30E7026E
:10177F007F00C374559E74808CF063F08095F05099
:10178F00047E558006EC30E7027E008F3F8E4022AC
:10179F0078988607E537C39FFF78998606E538C3A3
:1017AF009EFEC2D5EF30E704B2D5F404F5F0EF306A
:1017BF00E704B2D5F404A430D50AF42401C5F0F43B
:1017CF003400C5F0FFADF0C2D5EE30E704B2D5F46A
:1017DF0004F5F0EE30E704B2D5F404A430D50AF4E2
:1017EF002401C5F0F43400C5F02FFFED35F0FDC333
:1017FF0074409F74828DF063F08095F050078537A9
:10180F003F85384022753F0375405522AF82BF0395
:10181F0000500674036FF58222740C6FF58222AFAD
:10182F0082BF0102800FBF02028012BF0402800933
:10183F00BF0812800C7582042275820222758208FD
:10184F0022758201227582002212181BAF82E53E9B
:10185F0075F018A4242AFD743635F0FEE53D2DF5FC
:10186F0082E43EF583E493FEC007C006122748AC1E
:10187F0082D006D00774035CF5F005F07401800286
:10188F0025E0D5F0FBFDB5070280DDEE5D60D98D5B
:10189F008222A9828707E53FC39FFF09E7C39540CF
:1018AF00FEEF30E706C3E49FFD80028F05EE30E7C1
:1018BF0006C3E49EFC80028E04C3EC9D5014C374D7
:1018CF00808FF063F08095F050047582042275824A
:1018DF000822C374808EF063F08095F050047582F7
:1018EF00012275820222AF82BF06004005EF24B4A9
:1018FF005002C322EF24FAFFE57524F6FE75F003BC
:10190F00EF84E5F0700975F003EE84E5F06002C333
:10191F002275F003EF84F53D75F003EE84F53ED3A9
:10192F0022AF82BF060050027F06EF24B350027F22
:10193F004CEF24FAFFE57524F6F57575F003EF8487
:10194F00FE75F003E57584FD75F003EF84AFF0BF0E
:10195F0002010E75F003E57584AFF0BF02010D8D26
:10196F0007E4FDFCEE4205EC42078D828F83228552
:10197F003782853875121930AE82AF837D00BD0472
:10198F0000505AEDC40354F8FC2480F98782EC24EC
:10199F0080FC04F98775C007C006C005C004121982
:1019AF0030AA82AB83D004D005D006D007EEB502A3
:1019BF0029EFB5032574042CF9E75406600CD219EE
:1019CF00770074032CF87605801074032CF98704C4
:1019DF00BC02028003BC0102D21A0D80A17401B5B2
:1019EF004B0C7428B537077434B53802D21B2285D7
:1019FF008A82858C830227B4AF82C007122748D012
:101A0F00078F75757600022997AE82AF838E048F8C
:101A1F0005C3740F9C74279D50047E0F7F2775504C
:101A2F0003E55020E741E550254FF98E038F0475EC
:101A3F00750A7576008B828C83C004C003C00112B7
:101A4F00292EAA82D001D003D00474304AF37575C1
:101A5F000A7576008B828C8312271FAC82AD838C24
:101A6F00068D07155080BA7404254FF87430F27440
:101A7F0005254FF8E4F222AF827410B57522BF0628
:101A8F000EE54230E0047E0280027E008E8222BF8D
:101A9F004B35E54230E1047E0280027E008E8222C9
:101AAF007443B57522BF060EE54230E2047E028014
:101ABF00027E008E8222BF4B0EE54230E3047E028F
:101ACF0080027E008E822274075F90408593FEE530
:101ADF007575F00BA42466FC740835F0FDEFC42374
:101AEF00541F2CF582E43DF583E0FFEE5F60047533
:101AFF0082012275820022AF827410B5755BBF061A
:101B0F002890090BE054FDF0900916E054F8F0907E
:101B1F000921E054FDF05342FEAD47AE4874052D48
:101B2F00FDE43EFE8D478E4822BF4B028003021B11
:101B3F00C3900914E054EFF090091FE054C7F090E0
:101B4F00092AE054EFF05342FDAD47AE4874052D1E
:101B5F00FDE43EFE8D478E48227443B57556BF0691
:101B6F0028900B3CE054FDF0900B47E054F8F090B8
:101B7F000B52E054FDF05342FBAD47AE4874052DB8
:101B8F00FDE43EFE8D478E4822BF4B28900B45E06B
:101B9F0054EFF0900B50E054C7F0900B5BE054EF14
:101BAF00F05342F7AD47AE4874052DFDE43EFE8D70
:101BBF00478E482274075F90408593FEE57575F058
:101BCF000BA42466FC740835F0FDEFC423541F2CBE
:101BDF00FCE43DFDEEF4FE8C828D83E052068C8298
:101BEF008D83EEF00547E4B54702054822E5423004
:101BFF00E01590090BE06402F0900916E06407F01D
:101C0F00900921E06402F0E54230E115900914E0FB
:101C1F006410F090091FE06438F090092AE0641016
:101C2F00F0E54230E215900B3CE06402F0900B4778
:101C3F00E06407F0900B52E06402F0E54230E315E8
:101C4F00900B45E06410F0900B50E06438F0900B6F
:101C5F005BE06410F022757562757632757780756A
:101C6F0078C875790390086675F0001227C875411A
:101C7F000075420F2275750075762075770F900CE1
:101C8F002E75F00002281D7E007F00AD39BD0102C8
:101C9F00800FBD02028023BD04028050BD08648006
:101CAF0032E53B75F002A424A4F582744035F0F5BB
:101CBF0083E493FEA3E493FF8049E53B75F002A410
:101CCF0024AAF582744035F0F583E493FEA3E493E0
:101CDF00FF8030E53B75F002A424B0F582744035E7
:101CEF00F0F583E493FEA3E493FF8017E53B75F0D3
:101CFF0002A424B6F582744035F0F583E493FEA375
:101D0F00E493FF7DFEC374828DF063F08095F04005
:101D1F005A7CFEC374828CF063F08095F04049AB1F
:101D2F0037EC2BFBC364809483403574CE8BF06308
:101D3F00F08095F0402AAA38ED2AF5758E828F83B0
:101D4F00E493F576A3AE82AF838B82C007C006C043
:101D5F0005C0041220BAD004D005D006D0078005E4
:101D6F000EBE00010F0C80AB0D809A22AF827D5109
:101D7F007E3D8F04EC75F006A4240AF551EF24FB89
:101D8F005001227FFEC374828FF063F08095F04084
:101D9F00488D028E0379FEC3748289F063F08095BB
:101DAF00F0402F745329F8AC51EF2CF5758A828BC4
:101DBF0083E493F576A3AA82AB838882C007C0031E
:101DCF00C002C0011220BAD001D002D003D007093F
:101DDF0080C58A058B060F80AC22E58275F002A4C0
:101DEF0024D6F582744035F0F583E493FEA3E49393
:101DFF00FF7DFEC374828DF063F08095F0404C74CC
:101E0F00342DFC8E028F0379FEC3748289F063F048
:101E1F008095F0402F742829F88A828B83E493F5FC
:101E2F0076A3AA82AB838C758882C005C004C003D9
:101E3F00C002C0011220BAD001D002D003D004D00A
:101E4F00050980C58A068B070D80A822E582FF75DC
:101E5F00F002A424D6F582744035F0F583E493FDA7
:101E6F00A3E493FEEF75F007A4D39451F4F5527CDD
:101E7F00FEC374828CF063F08095F040488D028E23
:101E8F000379FEC3748289F063F08095F0402F745C
:101E9F005329F8AF52EC2FF5758A828B83E493F5B3
:101EAF0076A3AA82AB838882C004C003C002C0019C
:101EBF001220BAD001D002D003D0040980C58A0500
:101ECF008B060C80AC22E582FFC40354F82480F902
:101EDF002404F8E6FE30E114740529F8E660067C68
:101EEF00647D3E80047C4B7D3E021F81EE30E21705
:101EFF00740529F8E660067B647E3E80047B7D7E58
:101F0F003E8B048E05806B740329F88606BE030290
:101F1F008021BE0402801CBE051FE54375F002A49C
:101F2F0024CCF582744035F0F583E493FCA3E4935D
:101F3F00FD803F7C967D3E8039740529F8E6601858
:101F4F00EF75F002A424C4F582744035F0F583E4F4
:101F5F0093FBA3E493FE8016EF75F002A424BCF567
:101F6F0082744035F0F583E493FBA3E493FE8B0476
:101F7F008E05E904F87FFEC374828FF063F08095BD
:101F8F00F040627EFEC374828EF063F08095F04065
:101F9F00518703EE2BFBC364809483403D74CE8B3B
:101FAF00F063F08095F040328602EF2AF5758C824F
:101FBF008D83E493F576A3AC82AD838B82C007C08B
:101FCF0006C005C004C001C0001220BAD000D00165
:101FDF00D004D005D006D00780050CBC00010D0E33
:101FEF0080A30F809222AF82AC55AD56AE578C8234
:101FFF008D838EF012297BFB602A855358855459A7
:10200F008B5A8F82C007C006C005C004122034D07F
:10201F0004D005D006D0070CBC00010D8F0374044B
:10202F002BFF80CA22AF82E55A24E0F55A75F005DE
:10203F00A4245EFD743F35F0FE7C00BC05005052B9
:10204F00EC2DF582E43EF583E493FB7A04EC2558FE
:10205F00F97800B803005037EA5B602CE82FF5825F
:10206F008975855976C007C006C005C004C003C076
:10207F0002C001C0001220BAD000D001D002D0039C
:10208F00D004D005D006D007EAC313FA0880C40CD9
:10209F0080A9227575827576387577807578207569
:1020AF0079049011AE75F0000227C8E582FF30E089
:1020BF0030E57575F02CA4242EFD740C35F0FEEF71
:1020CF00C3132DFDE43EFE8D828E83E0FC5304F09E
:1020DF008D828E83ECF0E57642048D828E83ECF058
:1020EF0022E57575F02CA4242EFD740C35F0FEEF4F
:1020FF00C3132DFDE43EFE8D828E83E0FF53070F49
:10210F008D828E83EFF0E576C454F042078D828E78
:10211F0083EFF022AF82855B75C0071221D8AE82A4
:10212F00D007EE60038E8222855B758F82C0071207
:10213F0021A6AE82D007855B758F82C0061221580B
:10214F00AF82D006EF4EF58222AF827428B5750E9E
:10215F00EF24DB5009BF2A00500475820C2274074C
:10216F005F90408593FEE57575F00BA4249AFC747F
:10217F002E35F0FDEFC423541F2CF582E43DF5837B
:10218F00E493FFEE5F600C3018047F0580027F0A36
:10219F008F822275820022AF8274075F90408593F1
:1021AF00FEE57575F00BA42466FC740835F0FDEFA1
:1021BF00C423541F2CF582E43DF583E0FFEE5F60EE
:1021CF000475820B2275820022AF82E57575F02CA3
:1021DF00A4242EFD740C35F0FEEFC3132DF582E40D
:1021EF003EF583E0FEEF30E006740F5EF58222EEDF
:0621FF00C4540FF582221A
:102E9A000000000000000000000000000000000028
:102EAA000000000000000000000000000000000018
:102EBA000000000000000000000000000000000008
:102ECA0000000000000000000000000000000000F8
:102EDA000000000000000000000000000007FFFFE3
:102EEA00FFFC0FFFFFFFF8000800000002100000BF
:102EFA000004001000000001200000000200100081
:102F0A000000012000000002001000000001200063
:102F1A000000020010000000012000000002001062
:102F2A003E03FF81207FF01F020010410400412070
:102F3A00800820820010410400412080082082007D
:102F4A00103E03FF80C07FF01F0200100000000047
:102F5A000000000002001000000000000000000253
:102F6A000010000000000000000002001000000035
:102F7A000000000000020010000000000000000035
:102F8A000200103E0301FFFFE0301F02001041045F
:102F9A00820000104820820010410482000010487C
:102FAA00208200103E0481FC0FE0481F020010003E
:102FBA000480021000480002001000048001200072
:102FCA00480002001000048001200048000200109E
:102FDA00000480012000480002000800044001208B
:102FEA00008800040007FE043F81207F081FF800C4
:102FFA000001040041208008200000000104004173
:10300A002080082000000001043F80C07F082000C3
:10301A000000010440000000882000000001048034
:10302A000000004820000000010480000000482041
:10303A000000000104800000004820000000010494
:10304A0080000000482000001FFE0301FFFFE0305F
:10305A001FFE000000000200001000000000000037
:10306A000002000010000000000000000200001032
:10307A000000000000000002000010000000000034
:10308A00000002000010000000001FFE0302000002
:10309A0010301FFE000001048200001048200000CA
:1030AA00000104820000104820000000010481FF92
:1030BA00FFE04820000000010480000000482000D2
:1030CA000000010480000000482000000001048084
:1030DA000000004820000000010480000000482091
:1030EA000000000104800000004820000007FE04E0
:1030FA0081FFFFE0481FF800080004820000104822
:10310A0000040010000482000010480002001000B1
:10311A000301FFFFE0300002001000000000000081
:10312A000000020010000000000000000002001071
:10313A003E0000000000001F0200104100000000D5
:10314A0000002082001041000000000000208200E0
:10315A00104103FF80C07FF020820010410400412B
:10316A00208008208200104104004120800820822B
:10317A000010410400412080082082001041040010
:10318A00412080082082001041040041208008204C
:10319A008200103E03FF81207FF01F020010000012
:1031AA0000012000000002001000000001200000C1
:1031BA0000020010000000012000000002001000C0
:1031CA0000000120000000020010000000021000B0
:1031DA0000000200103FFFE03C0F01FFFF02001059
:1031EA0040001040008200008200104000104000A1
:1031FA008200008200103FFFE03FFF01FFFF020054
:10320A001000000000000000000200100000000092
:10321A000000000002001000000000000000000290
:10322A00001000000000000000000200080000007A
:10323A000000000000040007FFFFFFFFFFFFFFFF81
:10324A00F80000000000000000000000000000007C
:10325A000000000000000000000000000000000064
:10326A000000000000000000000000000000000054
:10327A000000000000000000000000000000000044
:10328A000000000000000000000000000000000034
:10329A000000000000000000000000000000000024
:1032AA000000000000000000000000000000000014
:1032BA000000000000000000000000000000000004
:1032CA000000000000000249249248049249249018
:1032DA0000000000000000000000000000000000E4
:1032EA0000000000000000020020000804000100A5
:1032FA0010000000000000000000000000000000B4
:10330A000000000000000000000020000804000186
:10331A0000000000000000000000000000000000A3
:10332A000000000000000000000249249249249293
:10333A004924900000000000000000000000000086
:10334A000000000000000000000002002010000041
:10335A000201001000000000000000000000000050
:10336A000000000000000000000000020020100021
:10337A000002010010000000000000000000000030
:10338A0000000000000000000000000002492012B6
:10339A004804920124900000000000000000000090
:1033AA0000000000000000000000000000000020F3
:1033BA000000000001000000000000000000000002
:1033CA0000000000000000000000000000000000F3
:1033DA0020000000000100000000000000000000C2
:1033EA0000000000000000000000000000000000D3
:1033FA0000200000000001000000000000000000A2
:10340A0000000000000000000000000000000000B2
:10341A000000200000000001000000000000000081
:10342A000000000000000000000000000000000092
:10343A000000002000000000010000000000000061
:10344A000000000000000000000000000000000072
:10345A000000000020000000000100000000000041
:10346A000000000000000000000000000000000052
:10347A000000000000200000000001000000000021
:10348A000000000000000000000000000000000032
:10349A000000000000002000000000010000000001
:1034AA000000000000000000000000000000000012
:1034BA0000000000000000200000000001000000E1
:1034CA0000000000000000000000000000000000F2
:1034DA0000000000000002492000000000012490C2
:1034EA0000000000000000000000000000000000D2
:1034FA0000000000000000020024924804924900E3
:10350A0010000000000000000000000000000000A1
:10351A000000000000000000020020000804000172
:10352A000010000000000000000000000000000081
:10353A000000000000000000000000200008040055
:10354A000100000000000000000000000000000070
:10355A000000000000000000000002002000080433
:10356A000001001000000000000000000000000040
:10357A0000000000000000000000000249249248F8
:10358A00049249249000000000000000000000009E
:10359A00000000000000000000000000020000021D
:1035AA0000001000001000000000000000000000F1
:1035BA0000000000000000000000000000020000FF
:1035CA0002000010000010000000000000000000CF
:1035DA000000000000000000000000000000024996
:1035EA00249249249249249000000000000000001F
:1035FA0000000000000000000000000000000000C1
:10360A0000000000000000000000000000000000B0
:10361A0000000000000000000000000000000000A0
:10362A00060C0C0C0E0C0C0C0C0C0A0000060C0CF4
:10363A000C0C0C0E0C0C0C0A03000000030000001A
:10364A000000030000030000000000030000000364
:10365A000300000003000000000003000003000054
:10366A000000000300000003070C0C0C0F0C0C0EEA
:10367A000C0C0D0C0C0D0C0C0E0C0C0F0C0C0C0B7A
:10368A000300000003000003000000000000000027
:10369A00030000030000000303000000030000030E
:1036AA000000000000000000030000030000000307
:1036BA00050C0C0C0B0000050C0C0A0000060C0C87
:1036CA00090000070C0C0C090000000003000000B0
:1036DA0000000300000300000000000300000000D7
:1036EA0000000000030000000000030000030000C7
:1036FA0000000003000000000000000003000006B4
:10370A000C0C0D0C0C0D0C0C0A0000030000000040
:10371A000000000003000003000000000000000099
:10372A0003000003000000000C0C0C0C0F0C0C0B27
:10373A000000000000000000070C0C0F0C0C0C0C21
:10374A000000000003000003000000000000000069
:10375A000300000300000000000000000300000353
:10376A000000000000000000030000030000000049
:10377A0000000000030000070C0C0C0C0C0C0C0CD5
:10378A000B0000030000000000000000030000031B
:10379A000000000000000000030000030000000019
:1037AA00060C0C0C0B0000030000000000000000D7
:1037BA00030000070C0C0C0A03000000070C0C0D98
:1037CA000C0C0E0C0C0E0C0C0D0C0C0B0000000358
:1037DA0003000000030000000000030000030000D3
:1037EA0000000003000000030300000003000000C3
:1037FA0000000300000300000000000300000003B3
:10380A0003000000030000000000030000030000A2
:10381A000000000300000003070C0C0C0D0C0C0C3C
:10382A000E0C090000050C0E0C0C0C0D0C0C0C0BEC
:10383A000300000000000000030000000000000375
:10384A000000000000000003030000000000000068
:10385A000300000000000003000000000000000355
:10386A00050C0C0C0C0C0C0C0D0C0C0C0C0C0C0D93
:10387A000C0C0C0C0C0C0C0911116666666666665B
:10388A0066666666666666666666666666666666CE
:10389A0066666666666666666666666666666666BE
:1038AA00666111111116DDDDDDDDDDDDDDDDDDDD5C
:1038BA00DDDDDDDDDDDDDDDDDDDDDDDDDDDDDDDD2E
:1038CA00DDDDDDDDDDDDDDDDDDDDDDDDDDD61111BD
:1038DA00116D111111111111111111111111111172
:1038EA0011111111111111111111111111111111BE
:1038FA001111111111111111111D6111116D1111F6
:10390A00111111111111111111111111111111119D
:10391A00111111111111111111111111111111118D
:10392A0011111111111D6111116D111111111111C5
:10393A00111111111111111111111111111111116D
:10394A00111111111111111111111111111111115D
:10395A00111D6111116D1111111111111111111195
:10396A00111111111111111111111111111111113D
:10397A00111111111111111111111111111D6111D1
:10398A00116D111116666666111111661111111168
:10399A001661111111111611111111161111166159
:1039AA001111611116666611111D6111116D111146
:1039BA001666666661111166111111166666611145
:1039CA001111166111111166111116611111661189
:1039DA0016666611111D6111116D11111666666662
:1039EA006611166661111166666666111111166610
:1039FA0011111666111116661111666116666611A5
:103A0A00111D6111116D1111166661166611166686
:103A1A00661116666666666111111666611166663A
:103A2A00111166661111666616666611111D61111D
:103A3A00116D1111166661166611666666111666B3
:103A4A0066661111111116666616666611116666AA
:103A5A006111666616666611111D6111116D1111EB
:103A6A001666666616116666661166666611111135
:103A7A006661166666666666111666666111666630
:103A8A0066666611111D6111116D111116666111BB
:103A9A0066166611666166666611111166611666BA
:103AAA006666666611166116661166666666661150
:103ABA00111D6111116D11111666166661166611D6
:103ACA0066611666666611111111166666666616D5
:103ADA00116661166661666666661611111D6111C8
:103AEA00116D111116661611116666666166166108
:103AFA0066166611111116666666661611666666A0
:103B0A001661666666661611111D6111116D111135
:103B1A0016661611166666666616116616611661CF
:103B2A0011111666666666161666666661616666CF
:103B3A0066661611111D6111116D111116611611AA
:103B4A001666611111166116611166111111166658
:103B5A006611111616666111116166661111161148
:103B6A00111D6111116D11111666661116666666D0
:103B7A006666611166666111111116666666666689
:103B8A00166666666661666666666611111D61116D
:103B9A00116D1111111111111111111111111111AF
:103BAA0011111111111111111111111111111111FB
:103BBA001111111111111111111D6111116D111133
:103BCA0011111111111111111111111111111111DB
:103BDA0011111111111111111111111111111111CB
:103BEA0011111111111D6111116D11111111111103
:103BFA0011111111111111111111111111111111AB
:103C0A00111111111111111111111111111111119A
:103C1A00111D6111116D11111111111111111111D2
:103C2A00111111111111111111111111111111117A
:103C3A00111111111111111111111111111D61110E
:103C4A001116DDDDDDDDDDDDDDDDDDDDDDDDDDDD2D
:103C5A00DDDDDDDDDDDDDDDDDDDDDDDDDDDDDDDD8A
:103C6A00DDDDDDDDDDDDDDDDDDD61111111166669F
:103C7A0066666666666666666666666666666666DA
:103C8A0066666666666666666666666666666666CA
:103C9A006666666666611111000606060006060675
:103CAA0006060606060606060606060600060606B0
:103CBA0000000600060006060006060606000606BE
:103CCA0006060606060006060600000000000006B4
:103CDA0000000006060000000606060006060006AA
:103CEA000606000006060600060606060606060082
:103CFA000606060600060600060006000006060678
:103D0A000006060006060600000006060000000679
:103D1A000000000000000606060006060606060069
:103D2A000000060606060606060006060600000647
:103D3A00060600000000060600000000060000005B
:103D4A000606000606060000060606000606060621
:103D5A000606060000000606060606000606060017
:103D6A00000606060006060000000600000000061F
:103D7A000600000000060606000003030300030312
:103D8A0003030303050305030303030303030003F8
:103D9A0000030003030300030303030303050305EE
:103DAA0003030303030300030003000007070700DC
:103DBA00070707070707050705070707070707078D
:103DCA000007000700070707000707070707070597
:103DDA000705070707070707000700070000080885
:103DEA000800080808080808050805080808080857
:103DFA000808000800080008080800080808080859
:103E0A00080508050808080808080008000800004E
:103E1A000909090009090909090905090509090919
:103E2A00090909090009000900090909000909091C
:103E3A000909090509050909090909090009000902
:103E4A00000005050500050505050505020502052D
:103E5A00050505050505000500050005050500051C
:103E6A000505050505020502050505050505000503
:103E7A00000500000202020002020202020203021C
:103E8A000302020202020202000200020000000013
:103E9A000000020002000000000000000000000014
:103EAA0000000000000000030000000303000000FF
:103EBA0000030000000003000000030303000000E9
:103ECA0003030000030000030000000300000003D6
:103EDA0000000003030303000303030300000000C0
:103EEA0003000000030000030000030000030300B6
:103EFA0000030000030003000003000303030300A0
:103F0A000000000300000000030000000009000098
:103F1A00000900000909090003030003030E030056
:103F2A000E0300040404000303040303030F030342
:103F3A00030303030F030003030300000004040444
:103F4A00000F0F0F000F0F0F0F0F0F0F0F0F0F00A4
:103F5A000F0F0F0000000000000202020002000022
:103F6A000000000000000000000000000000000047
:103F7A000000000000000000000000000000000037
:103F8A000000000000000000000000000000000027
:103F9A000000000000000000000000000000000017
:103FAA0000000000070505050706020202070701CF
:103FBA0007040707010301070505070101070407AD
:103FCA00010707040705070701010101070507059E
:103FDA0007070507010700000000000000000000B5
:103FEA0000000000000000000000000000000000C7
:103FFA000000000000000000000205070505060594
:10400A000605060304040403060505050607040657
:10401A000407070406040403040505030505070548
:10402A000507020202070101010502050506050549
:10403A000404040407050707050505070707050221
:10404A00050505020605060404020505060306051C
:10405A000605050304070106070202020205050513
:10406A0005070505050502050507070505050205F6
:10407A000505050202020701020407804020100814
:10408A0004020100142850A00A1E320B0A0A0E0C60
:10409A000A17151340061405E803BB3CD43CBB3C85
:1040AA00ED3C063DED3C1F3D383D1F3D513D6A3D0F
:1040BA00513D833DB53DE73D193E9C3DCE3D003E19
:1040CA00323E0000AF3EC83EE13EFA3E133F2C3F6F
:1040DA00453F5245414459210047414D45004F56FD
:0340EA004552003C
:10022200E4F55FF560F561F562E4F563F564F565A3
:08023200F566F55CF55DF55E73
:1022050020080122E55C6002155CE55D6002155D54
:1022150012221F122325755E0022E55E603CE55EF5
:1022250030E42CAE5E53060F7F00EE2EFEEF33FF3B
:10223500EE24E1F582EF3448F583E493F55FA3E4FA
:1022450093F560E55F45606006756200756101E5BF
:102255005E30E60653D1F7756100E4B5610122747D
:1022650001B5610280087402B56102807622E562DB
:1022750075F004A4FEAFF0255FF582EF3560F583B8
:10228500E493FCA3E493FDBC0005BD00028026BCDD
:102295000105BD00028008BC0226BD0023801DEE9D
:1022A500255FFAEF3560FB8A828B83A3A3E493F560
:1022B5005C7561022253D1F77561002275620022B7
:1022C5008CD58DD443D108EE255FFEEF3560FF8EAA
:1022D500828F83A3A3E493FF70030562228F5C754D
:1022E500610222E55C7038E56275F004A4255FFEA5
:1022F500E56035F0FF74032EFCE43FFD8C828D8391
:10230500E49370168E828F83E493FEA3E493FFBE5D
:102315000105BF0002800353D1F7056275610122F3
:10232500E55E603CE55E30E52CAE5E53060F7F0052
:10233500EE2EFEEF33FFEE24F9F582EF3448F583F8
:10234500E493F563A3E493F564E56345646006757A
:102355006600756501E55E30E70653D17F7565005A
:10236500E4B56501227401B5650280087402B5659E
:1023750002807622E56675F004A4FEAFF02563F5CC
:1023850082EF3564F583E493FCA3E493FDBC00057B
:10239500BD00028026BC0105BD00028008BC0226E6
:1023A500BD0023801DEE2563FAEF3564FB8A828B21
:1023B50083A3A3E493F55D7565022253D17F75650B
:1023C5000022756600228CD38DD243D180EE256321
:1023D500FEEF3564FF8E828F83A3A3E493FF700322
:1023E5000566228F5D75650222E55D7038E56675C7
:1023F500F004A42563FEE56435F0FF74032EFCE4C8
:102405003FFD8C828D83E49370168E828F83E493D7
:10241500FEA3E493FFBE0105BF0002800353D17FF5
:0624250005667565012249
:1040ED0001F205000100050000F90B00A8F60B0018
:1040FD00E4F40B0000F90500A8F6050001000B0023
:10410D00E4F40B0001000B00CAF2050001000500EC
:10411D0065F90B002FF70B0084F50B0065F9050011
:10412D002FF7050001000B0084F50B0001000B00BB
:10413D0001F205000100050000F90B00A8F60B00C7
:10414D00E4F40B00A8F60B0001000B00E4F40B00E7
:10415D0001000B0088F303003BF40300E4F40300BB
:10416D0001000B00E4F4030084F503001AF60300CC
:10417D0001000B0084F503001AF60300A8F60300F6
:10418D0001000B0000F917000000000051ED0B00BD
:10419D000100170051ED0B0001E40B0001000B00B5
:1041AD0051ED17005DEE0B00010017005DEE0B00E9
:1041BD0094E50B0001000B005DEE170051ED0B00B7
:1041CD000100170051ED0B0001E40B0001000B0085
:1041DD0051ED170051ED1100010005005BEF1100CD
:1041ED00010005002CF111000100050001F217007E
:1041FD00000000008AF500014BF500010AF50001F1
:10420D00C5F400017CF4000130F40001E0F300017D
:10421D008CF3000133F30001D4F2000170F20001C0
:10422D0006F2000196F100011EF100019DF0000162
:10423D0014F0000182EF0001E4EE00013AEE0001FE
:10424D00B1ED000165EE00010CEF0001A7EF0001DB
:10425D0038F00001BEF000013CF10001B2F10001A7
:10426D0021F200018AF20001ECF2000149F3000194
:10427D00A1F30001F5F3000144F400018FF40001F6
:10428D00D6F400011AF500015BF5000102000000F3
:10429D003CF60001FFF50001BEF500017BF50001C4
:1042AD0033F50001E8F4000198F4000144F4000135
:1042BD00EAF300018CF3000127F30001BCF20001C9
:1042CD0049F20001CFF100014BF10001BEF00001F8
:1042DD0026F00001BAEF00015AF00001EEF00001E6
:1042ED0078F10001F9F1000170F20001E0F2000136
:1042FD0049F30001ACF3000109F4000160F4000181
:10430D00B3F4000101F500014BF5000192F5000138
:10431D00D4F5000114F60001020000002CCF0001BD
:10432D00AAD50001A2DA00018EDE0001BCE1000178
:10433D005DE4000192E6000173E8000112EA00015C
:10434D007CEB0001BAEC0001D3ED0001CFEE0001D2
:10435D00B0EF000102000000CBF3000163F2000199
:10436D009DF0000150EE010132EB010150EE010113
:10437D009DF0000163F20001CBF30001000000008D
:10438D008AF500016BF500014BF500012BF50001DD
:10439D000AF50001E8F40001C5F40001A1F40001E3
:1043AD007CF4000157F4000130F4000109F4000120
:1043BD00E0F30001B7F300018CF3000160F300019D
:1043CD0033F3000104F30001D4F20001AFF2000158
:1043DD0010F300016BF30001C1F3000113F40001B0
:1043ED0060F40001AAF40001BCF4000198F400018E
:1043FD0073F400014DF4000127F40001FFF30001F7
:10440D00D6F30001ACF3000181F3000155F3000177
:10441D0027F30001F8F20001C8F2000196F2000145
:10442D0063F200012FF20001F9F10001C1F1000169
:10443D0087F100015AF10001CFF100013CF20001BA
:10444D00A3F2000104F3000160F30001B7F30001D2
:10445D00CBF30001A1F3000176F3000149F3000154
:10446D001BF30001ECF20001BCF200018AF2000125
:10447D0056F2000121F20001EBF10001B2F1000151
:10448D0078F100013CF10001FEF00001BEF00001E9
:10449D007CF0000138F00001F1EF0001BAEF0001EE
:1044AD0049F00001CEF000014BF10001C1F1000116
:1044BD002FF2000196F20001AFF200017DF2000132
:1044CD0049F2000114F20001DDF10001A4F1000137
:1044DD0069F100012DF10001EEF00001AEF00001D7
:1044ED006BF0000126F00001DFEF000194EF0001F9
:1044FD0048EF0001F8EE0001A5EE000150EE0001BD
:10450D00F6ED0001B1ED000165EE00010CEF0001CB
:10451D00A7EF000138F00001BEF000013CF10001F1
:10452D005AF100011EF10001DFF000019DF00001C4
:10453D005AF0000114F00001CCEF000182EF0001F0
:10454D0034EF0001E4EE000190EE00013AEE0001BF
:10455D00DFED000182ED000120ED0001BAEC00015C
:10456D0050EC0001E1EB00016EEB000113EB0001DB
:10457D00FEEB0001D4EC000199ED000150EE0001BD
:10458D00F8EE000194EF0001BAEF00016EEF0001AB
:10459D0020EF0001CFEE00017BEE000123EE0001C4
:1045AD00C8ED00016AED000107ED0001A0EC00016E
:1045BD0035EC0001C5EB000150EB0001D5EA00011F
:1045CD0055EA0001CFE9000142E90001ADE8000123
:1045DD0011E801000100080061DB0001BAEC0001E7
:1045ED00ECF200011BF600010AF8000158F9000178
:1045FD0048FA0001FCFA000189FB0001FAFB0100F9
:10460D000100010061DB0001BAEC0001ECF20001D8
:10461D001BF600010AF8000158F9000148FA0001E3
:10462D00FCFA000189FB0001FAFB0100000000000B
:10463D0061DB0001F8E0000113E5000139E800013C
:10464D00B6EA0001BAEC000165EE0001CCEF000105
:10465D00FEF0000106F20001ECF20001B7F30001DB
:10466D006AF400010AF5000199F500011BF600013D
:10467D0090F60001FBF600015DF70001B7F70001B0
:10468D000AF8000157F800019EF80001E1F8000159
:10469D001EF9000158F900018EF90001C1F9000160
:1046AD00F0F900011DFA000148FA00015EFA00015F
:1046BD006CFA00017AFA000188FA000196FA0001FD
:1046CD00A3FA0001B0FA0001BDFA0001C9FA000118
:1046DD00D5FA0001E1FA0001EDFA0001F9FA000145
:1046ED0004FB00010FFB00011AFB0001000000009C
:1046FD002FFD000118FD000100FD0001E6FC000189
:10470D00CAFC0001ACFC00018CFC000169FC00013D
:10471D0044FC00011BFC0001EFFB0001BEFB00018E
:10472D0089FB00014FFB00010EFB0001C5FA0001E2
:10473D0074FA000118FA0001B0F9000138F900010E
:10474D00ADF8000187F800015FF8000136F80001AF
:10475D000AF80001DDF70001AEF700017CF700015A
:10476D0048F7000112F7040102000000B1ED00014D
:10477D00EEEC000119EC000132EB000134EA00010E
:10478D001DE90001E9E7000192E6000113E50001D2
:10479D0064E300017CE100014EDF0001CADC000191
:1047AD00DBD9000163D600013AD2000124CD00010E
:1047BD00C8C600019BBE0001C2B6000155C600016E
:1047CD0071D0000189D70001CADC0001D6E00001DB
:1047DD000CE40001A9E60001D3E80001A6EA0001FE
:1047ED0035EC00018EED0001BAEE0001C3EF0001C2
:1047FD00AEF0000180F100013CF20001E6F2000193
:10480D0081F3000100000000C2B60101E8BA010108
:10481D009BBE0101EFC10101F0C40101A9C7010156
:10482D0026CA01016CCC010184CE010171D00101B8
:10483D003AD20101E1D301016BD50101DBD60101B2
:10484D0032D8010174D90101A2DA0101BEDB0101E7
:10485D00CADC0101C7DD0101B6DE010198DF0101EE
:10486D006FE001013AE10101FCE10101B4E2010156
:10487D0064E301010CE40101ACE4010145E5010132
:10488D00D8E5010165E60101EBE601016DE70101E6
:10489D00E9E7010160E80101D3E8010142E9010105
:1048AD00ACE9010113EA010176EA0101D5EA010142
:1048BD0032EB01018BEB0101E1EB010135EC010163
:1048CD0086EC0101D4EC010120ED01016AED01013D
:1048DD00000000000000ED4000000000000000009E
:1048ED0065438D433D460000794700000000994126
:1048FD0001429D429D422943000000000000FD46FB
:04490D000000154849
:10023A007569FFE4F56AF56BF56CF5677568FFC2D9
:01024A002093
:10242B001020012212244DAF82BFFD0A741FB56923
:10243B00012285696822BFFE047569FF228F688FB0
:10244B006922E4F575F5767401B56723780BE2FC28
:10245B0008E2FDC374A99C741D9D4003022540C373
:10246B00EC9440ED942440030225407582FD2274C8
:10247B0021B567028003022540780BE2FC08E2FDE0
:10248B00C374539C743B9D4003022540C3EC948260
:10249B00ED944840030225407D007C087B007A01C7
:1024AB00C3EA95674003022540EA2A240BF9E3FEB1
:1024BB0009E3FF19C374629E74079F500FC3EE9418
:1024CB0006EF94095006EDC313FD802BEA2A240B6B
:1024DB00F9E3FE09E3FF19C374479E74169F50136B
:1024EB00C3EE943AEF941B500AEDC313FF74804F65
:1024FB00FD80047582FE22DC38EB24FC402EEB2B96
:10250B0090250F7380068008801180138D75801CB9
:10251B00EDF4B5750280157582FE228D76800DED7A
:10252B00F4B57604857682227582FE227D000B7CC3
:10253B00080A0224AB7582FE22C0E0C0F0C082C044
:10254B0083C0D075D00810D803022624E56A24FC7A
:10255B005003022624E56A75F003A490256A7302E2
:10256B00257602259B0225DE0225FA75DA2185EAFE
:10257B006B85FA6CAE6BAF6C74BA2EF5EB74DB3FFC
:10258B00F5FB756700C2D943DB01756A010226248E
:10259B00AEEAAFFAEEC3956BFEEF956CFFC374A773
:1025AB009E74769F5022C3EE9405EF94915019853B
:1025BB00EA6B85FA6CAE6BAF6C74BA2EF5EB74DB11
:1025CB003FF5FB756A03800653DBFE756A0075DA0F
:1025DB0011804685EA6B85FA6CAE6BAF6C74BA2EC4
:1025EB00F5EB74DB3FF5FB75DA11756A03802AE5B1
:1025FB006725E0240BF9AEEAAFFAEEC3956BFEEF5D
:10260B00956CFFEEF309EFF374DD25674005E56785
:10261B0004F56775DA21756A0210D902800BD22096
:10262B0053DBFE75DA11756A0053D843D0D0D083D3
:10263B00D082D0F0D0E0327851E4F208F2785374C3
:10264B0005F212268202269BAE82AF83C007C0061C
:10265B001226D9D006D0077851EEF208EFF21226E7
:10266B008202269BAF82C0071226D9D0077853EF80
:10267B00F212268202269B75C780E4F5C4F5C3755A
:10268B00C50375C65A75C6A50075C70075C500226A
:10269B007F517E0075C78075C5028F017F00E3FDFA
:1026AB0009ED2EFE8FC475C3008DC275C65A75C653
:1026BB00A5000FBF030040E675C40375C3008EC2AF
:1026CB0075C65A75C6A50075C70075C50022757508
:1026DB00007576F0757780757804757900900051E8
:1026EB0075F0600227C87E007FF07D007C00BC0384
:1026FB000050128E828F83E493FBA3AE82AF83EBE9
:10270B002DFD0C80E98E828F83E493FEEDB50602DE
:10271B00D322C3227A10E4FBFCE58225E0F582E5A7
:10272B008333F583EB33FBEC33FCEB9575F5F0EC76
:0D273B0095764006FCABF0438201DADD220A
:0B024B00756D01E4F56EF56F757080B5
:10274800AC6DAD6EAE6FAF708D00EEC313C813C81D
:10275800C313C813C8F9EF030354C049F9EF0303BF
:10276800543FFA7B00EC6200ED6201EE6202EF6218
:1027780003E828FDE933FEEA33FF7C00E86204E958
:102788006205EA6206EB6207EFC313F8E4F9FAFBA5
:10279800E86204E96205EA6206EB62078C6D8D6EF9
:1027A8008E6F8F708C82747F5DF58322AE82AF83CB
:1027B8007D007C008E6D8F6E8D6F74804CF570225D
:06019E00E478FFF6D8FD35
:1027C800AD82AE83AFF08D7A8E7B8F7C85757D85EB
:1027D800767E85777FA878A9798803890418B8FF59
:1027E8000119EB4C6025857D82857E83857FF012FB
:1027F800297BFCA385827D85837E8D828E838FF0E5
:10280800EC1228F6A3AD82AE8380CE857A82857BD2
:1028180083857CF022AC82AD83AE76AF77BE0004B0
:10282800EF600C1F0FE5751228F6A3DEFADFF88CAF
:10283800828D8322AD82AE83AFF07B007C008D82D7
:102848008E838FF012297BFABA20028003BA090717
:102858000DBD00EA0E80E78D008E018F028D828EFD
:10286800838FF012297BFFE4BF2D0104F571BF2D82
:10287800028003BF2B0508B8000109880589068A6C
:10288800078D828E838FF012297BFABA300092214D
:102898004046EA24C69221403F8B758C7690000A08
:1028A800C007C006C005122911858272858373D0BE
:1028B80005D006D0078D828E838FF012297BF8A36E
:1028C800AD82AE837A00E824D0F8EA34FFFAE8252E
:1028D80072FBEA3573FC80A9E5716009C3E49BFECD
:1028E800E49CFF80048B068C078E828F832220F75E
:1028F8001130F6138883A88220F509F6A88375831A
:10290800002280FEF280F5F022E5828575F0A4C5EC
:1029180082C0F08576F0A4D0F025F0C5838575F0E7
:10292800A42583F58322E575457660467A01E57529
:1029380025E0F575E576334012F576E5829575E57F
:1029480083957640030A80E6C3E57613F576E57548
:1029580013F575C3E5829575F5F0E5839576400521
:10296800F58385F082C3E57613F576E57513F5757D
:03297800DAE1227F
:0D01910075819F12051AE582600302018E40
:10297B0020F71430F6148883A88220F507E6A88385
:10298B0075830022E280F7E49322E022C2D5E5832F
:10299B0030E70DD2D5E4C39582F582E49583F583B8
:1029AB00E57630E70BE4C39575F575E49576F5762A
:1029BB0012292E30D50BE4C39582F582E49583F56D
:1029CB008322C074858174E57424FDF88683188690
:1029DB008218E493A3B4256BC222C223C224C2255E
:1029EB00C226C227791F7700E493A324C64017247D
:1029FB000A50157005B51F02D227D226FAE775F0DB
:102A0B000AA42AF780E2240A2430B46C04D2228070
:102A1B00D7B46804D22380D0B47303022A59B464A8
:102A2B0006122BE2022AB5B47506122BE2022AD546
:102A3B00B4630518E618800DB47803022A94B42EFB
:102A4B000280A56006122CD40229DD022CEEC08375
:102A5B00C08286F018868318868218302619C22702
:102A6B00C082C08312297B6007A3151FE51F70F47A
:102A7B00122CBFD083D08212297B6006A3122CD4D8
:102A8B0080F5D082D0830229DD122AAC20230C12D0
:102A9B002AAC302206122AAC122AAC122CE60229DE
:102AAB00DDE6122CC4E618022CC5ED30E71CD2254E
:102ABB00E9F42401F9202312EAF43400FA30220A53
:102ACB00EBF43400FBECF43400FC20231030220830
:102ADB00EB7021EC701EC222EA7019D223E970143C
:102AEB00302609E51F6005151F122CBF7430122C00
:102AFB00D40229DDC082C083122BFC302660790AF8
:102B0B0030221DEB54F0703619EB540F703019EA6C
:102B1B0054F0702A19EA540F702419EF54F0701EF8
:102B2B00790520230BEF540F701419EE54F0700E2F
:102B3B007903EE540F700719ED54F0700119E51F6E
:102B4B00A225994019F51FC003C002C007C006C0DB
:102B5B0005122CBFD005D006D007D002D0033025EC
:102B6B0019C003C002C007C006C005742D122CD4B7
:102B7B00D005D006D007D002D00320234030222C22
:102B8B00C005C006C0078A82EBF583122CC4E5830F
:102B9B00122CC5E582122CC4E582122CC5D0E0F5AF
:102BAB0082122CC4E582D083D08280058D828E83E5
:102BBB00EF122CC5E583122CC4E58380038D82EEC6
:102BCB00122CC5E582122CC4E582122CC5122CE600
:102BDB00D083D0820229DDE6F9FD18202312AA0149
:102BEB00E6F91830220AAC02AB01E6FA18E6F9183E
:102BFB0022E975F06484FE740AC5F084C445F0FDC7
:102C0B0030230122EA540FF9904911932DD4FDE999
:102C1B004410933ED4FEEAC4540FF9904931932DDE
:102C2B00D4FDE94410933ED4FEE94420933400D400
:102C3B00FF20220122EB540FF9904961932DD4FD13
:102C4B00E94410933ED4FEE94420933FD4FFE4348F
:102C5B0000FAEBC4540FF9904991932DD4FDE9443C
:102C6B0010933ED4FEE94420933FD4FFE9443093C4
:102C7B003AD4FAEC540FF99049D17B00122C92EC18
:102C8B00C4540FF9904A21932DD4FDE94410933E7F
:102C9B00D4FEE94420933FD4FFE94430933AD4FA6D
:102CAB00E94440933BD4FB2274203027027430124A
:102CBB002CD4151FE51F70F022C4540F7003302461
:102CCB0019D2242490D43440D4C083C082C000F5E0
:102CDB00821202FFD000D082D083222024FC7430D9
:062CEB00022CD4D074227B
:10491100005612682480369248046016722884403A
:1049210000020507101215172023252830333538CA
:10493100009692888480767268646056524844403A
:10494100004081226304458627680950913273141F
:10495100000000010102020203030404040505062C
:1049610000367208448016528824609632680440EA
:1049710000551066217632874298530864197530C4
:104981000006131926323945525865727885919877
:1049910000765228048056320884603612886440BA
:1049A10000857157432814008671574329140086E6
:1049B1000004091419242934384348535863687290
:1049C100000102030405060708091011121314154A
:1049D100001632486480961228446076920824407A
:1049E1000072441688603205774921936538108238
:1049F10000775533108866442199775432108865C1
:104A010000163350678300173450678401183451FE
:104A11000000000000000101010101010202020287
:104A21000056126824803692480460167228844029
:104A3100005409631872278136914500540963189F
:104A41000043873074176104489135792266095310
:104A5100006836057342107947158452218958261A
:104A61000002050810131618212426293234374074
:00000001FF
